[{
  "txid": "511c645d736c3e5fc25b8fc1a507da81285be6d3f09941d712ff0e870b0a78e0",
  "hash": "511c645d736c3e5fc25b8fc1a507da81285be6d3f09941d712ff0e870b0a78e0",
  "version": 1,
  "size": 135,
  "vsize": 135,
  "locktime": 0,
  "vin": [
    {
      "coinbase": "04ffff001d025e01",
      "sequence": 4294967295
    }
  ],
  "vout": [
    {
      "value": 50.00000000,
      "n": 0,
      "scriptPubKey": {
        "asm": "041fd924bbe46dc12a97760d3e2fdc7df19064ba9ee3a381da7b321d4fd2925805b00c199d8340209dbbbdbb3f1dbc524ac8ff35b51280595d486a2c41e8a00942 OP_CHECKSIG",
        "hex": "41041fd924bbe46dc12a97760d3e2fdc7df19064ba9ee3a381da7b321d4fd2925805b00c199d8340209dbbbdbb3f1dbc524ac8ff35b51280595d486a2c41e8a00942ac",
        "reqSigs": 1,
        "type": "pubkey",
        "addresses": [
          "15qgGqvzsyCYnjyCQLNrXzjtgxQvGVLPj4"
        ]
      }
    }
  ],
  "hex": "01000000010000000000000000000000000000000000000000000000000000000000000000ffffffff0804ffff001d025e01ffffffff0100f2052a010000004341041fd924bbe46dc12a97760d3e2fdc7df19064ba9ee3a381da7b321d4fd2925805b00c199d8340209dbbbdbb3f1dbc524ac8ff35b51280595d486a2c41e8a00942ac00000000",
  "blockhash": "000000007c85141167dad3a3c31beee277664e7050e2af9a1befae630e7c2d1d",
  "confirmations": 499062,
  "time": 1232045504,
  "blocktime": 1232045504
},
{
  "txid": "1b530f57a052db3a8a0987630ee2fe6643e9ae04302844ec91ff3580c52d671d",
  "hash": "1b530f57a052db3a8a0987630ee2fe6643e9ae04302844ec91ff3580c52d671d",
  "version": 1,
  "size": 135,
  "vsize": 135,
  "locktime": 0,
  "vin": [
    {
      "coinbase": "04ffff001d02e406",
      "sequence": 4294967295
    }
  ],
  "vout": [
    {
      "value": 50.00000000,
      "n": 0,
      "scriptPubKey": {
        "asm": "04d55091e17828fbc2c3620af7114931981427b405176ea0cc24e396608f3d975ef4d81c9411daa869b8dd9dce4e5211af6e5f561278f00377c94ea8d590ba15f0 OP_CHECKSIG",
        "hex": "4104d55091e17828fbc2c3620af7114931981427b405176ea0cc24e396608f3d975ef4d81c9411daa869b8dd9dce4e5211af6e5f561278f00377c94ea8d590ba15f0ac",
        "reqSigs": 1,
        "type": "pubkey",
        "addresses": [
          "16V5j39diPbwaiwmyfaAWjjxvWLZGLxzma"
        ]
      }
    }
  ],
  "hex": "01000000010000000000000000000000000000000000000000000000000000000000000000ffffffff0804ffff001d02e406ffffffff0100f2052a01000000434104d55091e17828fbc2c3620af7114931981427b405176ea0cc24e396608f3d975ef4d81c9411daa869b8dd9dce4e5211af6e5f561278f00377c94ea8d590ba15f0ac00000000",
  "blockhash": "00000000882cfb02e7b8ae59353c0fa2e7b7a0d030128fd81a21a77f756959c8",
  "confirmations": 499061,
  "time": 1232046290,
  "blocktime": 1232046290
},
{
  "txid": "787a0ed2a93932c5a30687b50d9d1b4a5de011cb23b5eb2194a642a1506c8119",
  "hash": "787a0ed2a93932c5a30687b50d9d1b4a5de011cb23b5eb2194a642a1506c8119",
  "version": 1,
  "size": 135,
  "vsize": 135,
  "locktime": 0,
  "vin": [
    {
      "coinbase": "04ffff001d02e706",
      "sequence": 4294967295
    }
  ],
  "vout": [
    {
      "value": 50.00000000,
      "n": 0,
      "scriptPubKey": {
        "asm": "0488ac3041f92a3e02415e89726d1f4451cf79b5d2464d4a03b3a523060d9ac4f7f03509f27a191f07548e9147cf6c4a6abd7e36069e18253e89ba98547dd7980a OP_CHECKSIG",
        "hex": "410488ac3041f92a3e02415e89726d1f4451cf79b5d2464d4a03b3a523060d9ac4f7f03509f27a191f07548e9147cf6c4a6abd7e36069e18253e89ba98547dd7980aac",
        "reqSigs": 1,
        "type": "pubkey",
        "addresses": [
          "1CwqXoCjLehkgeEQH6Bauv7bDRKZKZBvci"
        ]
      }
    }
  ],
  "hex": "01000000010000000000000000000000000000000000000000000000000000000000000000ffffffff0804ffff001d02e706ffffffff0100f2052a0100000043410488ac3041f92a3e02415e89726d1f4451cf79b5d2464d4a03b3a523060d9ac4f7f03509f27a191f07548e9147cf6c4a6abd7e36069e18253e89ba98547dd7980aac00000000",
  "blockhash": "00000000f5805c3ed1c24ecddba78c6a6f2a671ba6b2d3c89cddc7c8e0c16a2f",
  "confirmations": 499060,
  "time": 1232046839,
  "blocktime": 1232046839
}]